:100000000C9480000C94AE000C94AE000C94AE00E6
:100010000C94AE000C94AE000C94AE000C94AE00A8
:100020000C94AE000C94AE000C94AE000C94AE0098
:100030000C94AE000C94AE000C94AE000C94AE0088
:100040000C94AE000C94AE000C94AE000C94AE0078
:100050000C94AE000C94AE000C94AE000C94AE0068
:100060000C94AE000C94AE000C94AE000C94AE0058
:100070000C94AE000C948C000C94AE000C94AE006A
:100080000C94AE000C94AE000C94AE000C94AE0038
:100090000C94AE000C94AE000C94AE000C94AE0028
:1000A0000C94AE000C94AE000C94AE000C94AE0018
:1000B0000C94AE000C94AE000C94AE000C94AE0008
:1000C0000C94AE000C94AE000C94AE000C94AE00F8
:1000D0000C94AE000C94AE000C94AE000C94AE00E8
:1000E0000C94AE000C94AE000C94AE000C94AE00D8
:1000F0000C94AE000C94AE000C94AE000C94AE00C8
:1001000011241FBECFEFCDBFDFE7DEBF0E94AB00E3
:080110000C948A00F894FFCF63
:100118001F920F920FB60F9211240BB60F928F9366
:10012800EF93FF93E0E4F4E0818584608187FF9199
:10013800EF918F910F900BBE0F900FBE0F901F90F5
:02014800189508
:0C014A00E2E5F4E080818360808308958A
:060156000E94A500FFCF8E
:04015C000C940000FF
:00000001FF
